{
    "_format": "hh-sol-artifact-1",
    "contractName": "NFTMarket",
    "sourceName": "contracts/NFTMarket.sol",
    "abi": [
        {
            "inputs": [],
            "stateMutability": "nonpayable",
            "type": "constructor"
        },
        {
            "anonymous": false,
            "inputs": [
                {
                    "indexed": false,
                    "internalType": "uint256",
                    "name": "ItemId",
                    "type": "uint256"
                },
                {
                    "indexed": false,
                    "internalType": "address",
                    "name": "ContractAddress",
                    "type": "address"
                },
                {
                    "indexed": false,
                    "internalType": "uint256",
                    "name": "TokenId",
                    "type": "uint256"
                },
                {
                    "indexed": false,
                    "internalType": "address payable",
                    "name": "seller",
                    "type": "address"
                },
                {
                    "indexed": false,
                    "internalType": "address payable",
                    "name": "owner",
                    "type": "address"
                },
                {
                    "indexed": false,
                    "internalType": "uint256",
                    "name": "price",
                    "type": "uint256"
                },
                {
                    "indexed": false,
                    "internalType": "bool",
                    "name": "sold",
                    "type": "bool"
                }
            ],
            "name": "MarketItemCreated",
            "type": "event"
        },
        {
            "inputs": [
                {
                    "internalType": "address",
                    "name": "nftContract",
                    "type": "address"
                },
                {
                    "internalType": "uint256",
                    "name": "tokenId",
                    "type": "uint256"
                },
                {
                    "internalType": "uint256",
                    "name": "price",
                    "type": "uint256"
                }
            ],
            "name": "createMarketItem",
            "outputs": [],
            "stateMutability": "payable",
            "type": "function"
        },
        {
            "inputs": [
                {
                    "internalType": "address",
                    "name": "nftContract",
                    "type": "address"
                },
                {
                    "internalType": "uint256",
                    "name": "itemId",
                    "type": "uint256"
                }
            ],
            "name": "createMarketSale",
            "outputs": [],
            "stateMutability": "payable",
            "type": "function"
        },
        {
            "inputs": [],
            "name": "fetchCreatedNFTs",
            "outputs": [
                {
                    "components": [
                        {
                            "internalType": "uint256",
                            "name": "ItemId",
                            "type": "uint256"
                        },
                        {
                            "internalType": "address",
                            "name": "ContractAddress",
                            "type": "address"
                        },
                        {
                            "internalType": "uint256",
                            "name": "tokenId",
                            "type": "uint256"
                        },
                        {
                            "internalType": "address payable",
                            "name": "seller",
                            "type": "address"
                        },
                        {
                            "internalType": "address payable",
                            "name": "owner",
                            "type": "address"
                        },
                        {
                            "internalType": "uint256",
                            "name": "price",
                            "type": "uint256"
                        },
                        {
                            "internalType": "bool",
                            "name": "sold",
                            "type": "bool"
                        }
                    ],
                    "internalType": "struct NFTMarket.MarketItem[]",
                    "name": "",
                    "type": "tuple[]"
                }
            ],
            "stateMutability": "view",
            "type": "function"
        },
        {
            "inputs": [],
            "name": "fetchMarketItems",
            "outputs": [
                {
                    "components": [
                        {
                            "internalType": "uint256",
                            "name": "ItemId",
                            "type": "uint256"
                        },
                        {
                            "internalType": "address",
                            "name": "ContractAddress",
                            "type": "address"
                        },
                        {
                            "internalType": "uint256",
                            "name": "tokenId",
                            "type": "uint256"
                        },
                        {
                            "internalType": "address payable",
                            "name": "seller",
                            "type": "address"
                        },
                        {
                            "internalType": "address payable",
                            "name": "owner",
                            "type": "address"
                        },
                        {
                            "internalType": "uint256",
                            "name": "price",
                            "type": "uint256"
                        },
                        {
                            "internalType": "bool",
                            "name": "sold",
                            "type": "bool"
                        }
                    ],
                    "internalType": "struct NFTMarket.MarketItem[]",
                    "name": "",
                    "type": "tuple[]"
                }
            ],
            "stateMutability": "view",
            "type": "function"
        },
        {
            "inputs": [],
            "name": "fetchMyNFTs",
            "outputs": [
                {
                    "components": [
                        {
                            "internalType": "uint256",
                            "name": "ItemId",
                            "type": "uint256"
                        },
                        {
                            "internalType": "address",
                            "name": "ContractAddress",
                            "type": "address"
                        },
                        {
                            "internalType": "uint256",
                            "name": "tokenId",
                            "type": "uint256"
                        },
                        {
                            "internalType": "address payable",
                            "name": "seller",
                            "type": "address"
                        },
                        {
                            "internalType": "address payable",
                            "name": "owner",
                            "type": "address"
                        },
                        {
                            "internalType": "uint256",
                            "name": "price",
                            "type": "uint256"
                        },
                        {
                            "internalType": "bool",
                            "name": "sold",
                            "type": "bool"
                        }
                    ],
                    "internalType": "struct NFTMarket.MarketItem[]",
                    "name": "",
                    "type": "tuple[]"
                }
            ],
            "stateMutability": "view",
            "type": "function"
        },
        {
            "inputs": [],
            "name": "getListingPrice",
            "outputs": [
                {
                    "internalType": "uint256",
                    "name": "",
                    "type": "uint256"
                }
            ],
            "stateMutability": "view",
            "type": "function"
        }
    ],
    "bytecode": "0x60806040526658d15e1762800060045534801561001b57600080fd5b506001600055600380546001600160a01b03191633179055610d05806100426000396000f3fe6080604052600436106100555760003560e01c80630f08efe01461005a57806312e855851461008557806318474cea146100a3578063202e3740146100b857806358eb2df5146100cd578063c23b139e146100e2575b600080fd5b34801561006657600080fd5b5061006f6100f5565b60405161007c9190610bdb565b60405180910390f35b34801561009157600080fd5b5060045460405190815260200161007c565b3480156100af57600080fd5b5061006f61029b565b3480156100c457600080fd5b5061006f610488565b6100e06100db366004610ba9565b610675565b005b6100e06100f0366004610b80565b610926565b6060600061010260015490565b9050600061010f60025490565b60015461011c9190610c87565b90506000808267ffffffffffffffff81111561014857634e487b7160e01b600052604160045260246000fd5b60405190808252806020026020018201604052801561018157816020015b61016e610b28565b8152602001906001900390816101665790505b50905060005b84811015610292576005600061019e836001610c6f565b815260208101919091526040016000206006015460ff166102805760006005816101c9846001610c6f565b81526020808201929092526040908101600020815160e0810183528154815260018201546001600160a01b039081169482019490945260028201549281019290925260038101548316606083015260048101549092166080820152600582015460a082015260069091015460ff16151560c08201528351909150819084908690811061026557634e487b7160e01b600052603260045260246000fd5b6020026020010181905250838061027b90610c9e565b945050505b8061028a81610c9e565b915050610187565b50949350505050565b606060006102a860015490565b905060008060005b8381101561030b5733600560006102c8846001610c6f565b81526020810191909152604001600020600301546001600160a01b031614156102f957816102f581610c9e565b9250505b8061030381610c9e565b9150506102b0565b5060008167ffffffffffffffff81111561033557634e487b7160e01b600052604160045260246000fd5b60405190808252806020026020018201604052801561036e57816020015b61035b610b28565b8152602001906001900390816103535790505b50905060005b8481101561029257336005600061038c846001610c6f565b81526020810191909152604001600020600301546001600160a01b031614156104765760006005816103bf846001610c6f565b81526020808201929092526040908101600020815160e0810183528154815260018201546001600160a01b039081169482019490945260028201549281019290925260038101548316606083015260048101549092166080820152600582015460a082015260069091015460ff16151560c08201528351909150819084908790811061045b57634e487b7160e01b600052603260045260246000fd5b6020026020010181905250848061047190610c9e565b955050505b8061048081610c9e565b915050610374565b6060600061049560015490565b905060008060005b838110156104f85733600560006104b5846001610c6f565b81526020810191909152604001600020600401546001600160a01b031614156104e657816104e281610c9e565b9250505b806104f081610c9e565b91505061049d565b5060008167ffffffffffffffff81111561052257634e487b7160e01b600052604160045260246000fd5b60405190808252806020026020018201604052801561055b57816020015b610548610b28565b8152602001906001900390816105405790505b50905060005b84811015610292573360056000610579846001610c6f565b81526020810191909152604001600020600401546001600160a01b031614156106635760006005816105ac846001610c6f565b81526020808201929092526040908101600020815160e0810183528154815260018201546001600160a01b039081169482019490945260028201549281019290925260038101548316606083015260048101549092166080820152600582015460a082015260069091015460ff16151560c08201528351909150819084908790811061064857634e487b7160e01b600052603260045260246000fd5b6020026020010181905250848061065e90610c9e565b955050505b8061066d81610c9e565b915050610561565b600260005414156106cd5760405162461bcd60e51b815260206004820152601f60248201527f5265656e7472616e637947756172643a207265656e7472616e742063616c6c0060448201526064015b60405180910390fd5b60026000558061071f5760405162461bcd60e51b815260206004820152601d60248201527f5072696365206d757374206265206772656174686572207468616e203000000060448201526064016106c4565b60045434146107815760405162461bcd60e51b815260206004820152602860248201527f5072696365206d75737420626520657175616c20746f20746865206c697374696044820152676e6720707269636560c01b60648201526084016106c4565b61078f600180546001019055565b600061079a60015490565b6040805160e0810182528281526001600160a01b0387811660208084018281528486018a815233606087018181526080880182815260a089018d8152600060c08b018181528d8252600598899052908c90209a518b55955160018b018054918b166001600160a01b0319928316179055945160028b0155915160038a018054918a16918616919091179055516004808a018054929099169190941617909655945192860192909255516006909401805494151560ff199095169490941790935592516323b872dd60e01b81529182015230602482015260448101869052919250906323b872dd90606401600060405180830381600087803b15801561089e57600080fd5b505af11580156108b2573d6000803e3d6000fd5b5050604080518481526001600160a01b038816602082015290810186905233606082015260006080820181905260a0820186905260c08201527f045dfa01dcba2b36aba1d3dc4a874f4b0c5d2fbeb8d2c4b34a7d88c8d8f929d1925060e001905060405180910390a1505060016000555050565b600260005414156109795760405162461bcd60e51b815260206004820152601f60248201527f5265656e7472616e637947756172643a207265656e7472616e742063616c6c0060448201526064016106c4565b60026000818155828152600560208190526040909120908101549101543482146109e55760405162461bcd60e51b815260206004820152601e60248201527f506c65617365207375626d6974207468652061736b696e67207072696365000060448201526064016106c4565b6000838152600560205260408082206004015490516001600160a01b03909116913480156108fc02929091818181858888f19350505050158015610a2d573d6000803e3d6000fd5b506040516323b872dd60e01b8152306004820152336024820152604481018290526001600160a01b038516906323b872dd90606401600060405180830381600087803b158015610a7c57600080fd5b505af1158015610a90573d6000803e3d6000fd5b50505060008481526005602052604090206004810180546001600160a01b03191633179055600601805460ff1916600117905550610ad2600280546001019055565b6000838152600560205260408082206003015460045491516001600160a01b039091169282156108fc02929190818181858888f19350505050158015610b1c573d6000803e3d6000fd5b50506001600055505050565b6040805160e081018252600080825260208201819052918101829052606081018290526080810182905260a0810182905260c081019190915290565b80356001600160a01b0381168114610b7b57600080fd5b919050565b60008060408385031215610b92578182fd5b610b9b83610b64565b946020939093013593505050565b600080600060608486031215610bbd578081fd5b610bc684610b64565b95602085013595506040909401359392505050565b602080825282518282018190526000919060409081850190868401855b82811015610c6257815180518552868101516001600160a01b039081168887015286820151878701526060808301518216908701526080808301519091169086015260a0808201519086015260c09081015115159085015260e09093019290850190600101610bf8565b5091979650505050505050565b60008219821115610c8257610c82610cb9565b500190565b600082821015610c9957610c99610cb9565b500390565b6000600019821415610cb257610cb2610cb9565b5060010190565b634e487b7160e01b600052601160045260246000fdfea2646970667358221220476adc2f1b3bc629f54c2e0dfd2c4c73c60e2775c6a9d062874aedb81a8db06364736f6c63430008040033",
    "linkReferences": {},
    "deployedLinkReferences": {}
}